:10000000F1C000000C948D160C94BA160C94E716EF
:100010000C9414170FC100000DC100000BC10000AB
:1000200009C1000007C100000C94AC150C942A14FF
:1000300001C10000FFC00000FDC00000FBC00000C7
:10004000F9C000007CC20000F5C00000F3C0000051
:10005000F1C00000EFC00000EDC000000C940213DE
:10006000E9C00000E7C00000E5C00000E3C00000F8
:10007000E1C00000DFC00000DDC00000DBC0000008
:1000800035C20000D7C00000D5C00000D3C00000BA
:10009000C9C40000CFC00000CDC00000CBC000002C
:1000A000C9C00000C7C00000C5C000000123022372
:1000B0000423082380230129022904290829402632
:1000C000802640298029102320234023802F402F81
:1000D000202F102F022F012F10292029402C7DFDC9
:1000E0007DFB7DF77DEF7DDF7E7F7EBF7EDF7EEF58
:1000F0007EFD7EFE7DFE0001040506070D0C0B0A49
:1001000009080A0B0C0D0706050401000800010090
:100110000041011200020000530143000300009659
:100120000104010309049A011802030904B4011629
:1001300003030904CC010C0001C1020180360181D6
:10014000361201000202000020C0168304000101E3
:1001500002030109024300020100C0320904000049
:100160000102020100052400100105240100010420
:100170002402060524060001070582030800400941
:10018000040100020A000000070503024000000706
:1001900005840240000004030904180354006500AC
:1001A00065006E00730079006400750069006E00E0
:1001B0006F0000001603550053004200200053005A
:1001C00065007200690061006C0000000C033100E2
:1001D00032003300340035000000FCF3CF3F9F03B2
:1001E000E108881911241FBECFEFDAE0DEBFCDBFD2
:1001F00011E0A0E0B1E0E8EEF4E302C005900D925A
:10020000A233B107D9F718E0A2E3B1E001C01D9213
:10021000A136B107E1F711E0C4EED1E004C02297A6
:10022000FE010E946E1ACE3DD107C9F70E94D31776
:100230000C94721AE5CE0E94CD0DB2C60E94790EC2
:1002400080E895E293D584E667E271E04AC70E94B0
:100250006509AA2797FDA095BA2FBC01CD010C9482
:100260004213FC0180913201883190F480838F5FCA
:1002700080933201815090E0FC01EE0FFF1FE80FE8
:10028000F91FED5CFE4F88EB9BE09283818308951C
:100290008FEF80830895DC018C9190E0FC01EE0FDC
:1002A000FF1FE80FF91FED5CFE4F80818F7B80837D
:1002B0008C916CE00E94171A90E0AC01440F551F1E
:1002C000480F591F440F551F440F551F20E030E0C1
:1002D000C901840F951FFC01EE0FFF1FE80FF91FE6
:1002E000ED5CFE4F808186FD05C02F5F3F4F2C30B7
:1002F000310571F70895FC0120812831B8F581811D
:10030000992787FD909548E850E0481B590B440F0A
:10031000551F440F551F6417750784F08281992774
:1003200087FD909548E552E0481B590B440F551F37
:10033000440F551F641775070CF4AB014250504031
:10034000CA01AA2797FDA095BA2F880F991FAA1F47
:10035000BB1F4FB7F89430E0F901EE0FFF1FE20F1B
:10036000F31FED5CFE4F928381834FBF08950F937F
:100370001F93CF93DF938A01EC01DC01A558BE4F98
:100380008C9187FF04C0FB011182108238C0AE013E
:10039000440F551F4C0F5D1F440F551F440F551F31
:1003A0002C91332727FD3095240F351F8091320182
:1003B00090E0281739071CF58C91992787FD9095B7
:1003C000840F951FFC01EE0FFF1FE80FF91FED5C76
:1003D000FE4F808186FF13C08C91992787FD9095F1
:1003E000840F951FFC01EE0FFF1FE80FF91FED5C56
:1003F000FE4F80818F73E82FF0E00E94C011DE0174
:10040000A558BE4F8C918F5F8C93AE01440F551F42
:100410004C0F5D1F440F551F440F551F2C91332760
:1004200027FD3095240F351F8091320190E0281769
:1004300039070CF04EC08C918C300CF04AC0FB0197
:10044000208131818C91992787FD9095840F951F8C
:10045000FC01EE0FFF1FE80FF91FED5CFE4F8181DD
:100460009281280F391FF801318320838C919927BD
:1004700087FD9095840F951FFC01EE0FFF1FE80F7D
:10048000F91FED5CFE4F808186FF2BC08C91992770
:1004900087FD9095840F951FFC01EE0FFF1FE80F5D
:1004A000F91FED5CFE4F80818F73E82FF0E00E9412
:1004B000BA1117C080E49CE904C0FB0180819181DE
:1004C0000496F80191838083C558DE4F8FEF8883AF
:1004D00008C0FB0180819181049680549C4950F3AF
:1004E000ECCFDF91CF911F910F9108951F920F9242
:1004F0000FB60F9211242F933F934F935F936F93F7
:100500007F938F939F93AF93BF93EF93FF9380E07D
:1005100090E064E970E048E950E029DFFF91EF9155
:10052000BF91AF919F918F917F916F915F914F910B
:100530003F912F910F900FBE0F901F9018951F9213
:100540000F920FB60F9211242F933F934F935F9307
:100550006F937F938F939F93AF93BF93EF93FF938B
:1005600081E090E064E870E048E850E000DFFF914F
:10057000EF91BF91AF919F918F917F916F915F911B
:100580004F913F912F910F900FBE0F901F90189594
:10059000CF92DF92EF92FF921F93CF93DF93EC0104
:1005A000162F7A0169018881883108F072C0862F80
:1005B0000E944E11888190E0FC01EE0FFF1FE80FB2
:1005C000F91FED5CFE4F1F738081807C812B80833F
:1005D00080E292E08E199F0964E070E00E94231A85
:1005E000698380E699E08C199D0964E070E00E94BF
:1005F000231A6A83A8818A2F6CE00E94171A682F39
:1006000070E0AB01440F551F460F571F440F551F95
:10061000440F551F20E030E0C901840F951FFC01F5
:10062000EE0FFF1FE80FF91FED5CFE4F808186FD86
:1006300024C02F5F3F4F2C30310571F733C010922B
:10064000800082E0809381001092850010928400E7
:10065000B19A80916F00826080936F000EC0672B0B
:1006600061F41092900082E08093910010929500C6
:100670001092940088BB809371008A2F90E0FC0157
:10068000EE0FFF1FE80FF91FED5CFE4F80818064C5
:1006900080838881DF91CF911F91FF90EF90DF9051
:1006A000CF90089561307105D1F6C9CF40E252E094
:1006B00020E639E06DCF81E08093C20160939F0115
:1006C0001092C0011092C101089520919E0130E066
:1006D00080919D01281B3109C901089540919D0118
:1006E00080919E01481718F02FEF3FEF0AC0E42FCA
:1006F000F0E0E358FE4F8081282F30E04F5F4093B9
:100700009D01C9010895E0919D0180919E01E81726
:1007100018F0EFEFFFEF06C0F0E0E358FE4F8081E6
:10072000E82FF0E0CF01089508957093C60160931B
:10073000C50108957093C4016093C3010895109298
:10074000C90188EE93E0A0E0B0E08093CA019093E5
:10075000CB01A093CC01B093CD011092CE0186E1E4
:1007600091E09093C8018093C7010895CF92DF92E2
:10077000EF92FF920F931F93CF93DF937C016B0156
:100780008A018091C2018823A1F0C0E0D0E00DC0B1
:10079000D701ED91FC91D601AC0FBD1F0190F08106
:1007A000E02DC7016C9109952196C017D10780F300
:1007B00003C0CB01642F1BD1C801DF91CF911F91E2
:1007C0000F91FF90EF90DF90CF900895DF93CF933C
:1007D0000F92CDB7DEB7FC0169838091C2018823F7
:1007E000B9F08091C101803228F081E0828320E05D
:1007F00030E014C08091C001E82FF0E0E056FE4FD9
:10080000998190838F5F8093C0018093C10104C060
:10081000CE01019661E0EBD021E030E0C9010F90FC
:10082000CF91DF9108950F93062F80919F0160EA89
:1008300071E04091C10121E085D01092C001109279
:10084000C1011092C2010F91089561E0ECCF4132D5
:1008500008F040E2862F6DE771E02BD010929D01E9
:1008600080939E01089521E0F2CF10929D01109295
:100870009E011092C0011092C10100C01092CF01E0
:1008800081E08093D1011092D201599A589A84B58F
:100890008F7D84BDE9EBF0E080818E7F8083808155
:1008A0008D7F808388E48093B80085E48093BC00CA
:1008B0000895382F413210F040E042C08091CF01BE
:1008C0008823E1F791E09093CF012093D1018FEF3E
:1008D00080933C021092F70141504093F8014F5F22
:1008E0009093D0018091D001330F832B8093D0015E
:1008F0008091D201813041F41092D2018091D001D7
:100900008093BB0085EC01C085EE8093BC00809194
:10091000CF018130E1F38091F701841710F4409109
:10092000F70120E030E00AC0FB01E20FF31FD9011C
:10093000A952BE4F8C9180832F5F3F4F2417A0F3A5
:10094000842F08950F931F93582F122F413210F0C8
:1009500081E04AC08091CF018823E1F782E0809353
:10096000CF010093D1018FEF80933C021092F701E9
:100970004093F801A7EDB1E0FB0102C081918D9396
:100980008E2F861B8417D0F31092D0018091D00156
:10099000550F852B8093D0018091D201813041F495
:1009A0001092D2018091D0018093BB0085EC01C0F0
:1009B00085EE8093BC00112321F08091CF0182301D
:1009C000E1F380913C028F3F11F480E00DC08091F3
:1009D0003C02803211F482E007C080913C028033F7
:1009E00011F084E001C083E01F910F910895482F1A
:1009F000613210F081E008958091CF01843011F0D0
:100A000082E0089560931A02A9EFB1E0842F9C015F
:100A1000F90102C081918D938E2F841B8617D0F32C
:100A200080E008951F920F920FB60F9211242F931A
:100A30003F934F935F936F937F938F939F93AF9366
:100A4000BF93EF93FF938091B90090E0887F9070FF
:100A50008036910509F4F2C081369105CCF58832D3
:100A6000910509F47BC089329105B4F48031910578
:100A700009F46FC0813191053CF4009709F447C136
:100A8000089709F04FC165C08831910509F466C027
:100A9000809709F047C182C08034910509F4A4C051
:100AA0008134910544F48033910509F482C0C897DC
:100AB00009F038C189C08035910509F489C08835AD
:100AC000910509F496C08834910509F02BC1AEC098
:100AD0008839910509F413C189399105ECF48837F7
:100AE000910509F4ABC0893791054CF4883691051E
:100AF00009F4A4C08037910509F014C19FC088385B
:100B0000910509F4FCC08039910509F49DC0803835
:100B1000910509F007C198C0803B910509F4C6C052
:100B2000813B91054CF4803A910509F49FC0883AC5
:100B3000910509F0F7C0BAC0803C910509F4E3C003
:100B4000883C910509F4DFC0883B910509F0EAC0B3
:100B5000C2C08091D0018093BB00CFC09091F701BB
:100B60008091F801981768F49091F701E92FF0E06F
:100B7000E952FE4F80818093BB009F5F9093F70105
:100B8000BCC08091D101882309F44BC085ED8093CE
:100B9000BC008091BC0084FDFCCFC2C080E2809389
:100BA0003C0285ED8093BC008091BC0084FDFCCFAD
:100BB000B7C080E380933C0285ED8093BC008091B8
:100BC000BC0084FDFCCFACC088E380933C029BC09A
:100BD0008091F7019091BB00E82FF0E0E952FE4FC1
:100BE00090838F5F8093F7019091F7018091F801D6
:100BF00082C08091F7019091BB00E82FF0E0E952AC
:100C0000FE4F90838F5F8093F7018091D1018823FD
:100C100041F085ED8093BC008091BC0084FDFCCF49
:100C20007FC081E08093D20184EA6EC085ED80931D
:100C3000BC008091BC0084FDFCCF72C083E0809337
:100C4000CF0110923B0259C080913B02803208F0E4
:100C500056C080913B029091BB00E82FF0E0E55E2A
:100C6000FD4F90838F5F80933B0247C080913B0292
:100C7000803230F4E0913B02F0E0E55EFD4F1082FF
:100C800085ED8093BC008091BC0084FDFCCF109268
:100C9000CF0160913B02E091D501F091D6018BE14B
:100CA00092E070E0099510923B022DC084E08093A1
:100CB000CF011092190210921A02E091D301F09123
:100CC000D401099580911A02882329F481E0809348
:100CD0001A021092F90190911902E92FF0E0E75001
:100CE000FE4F80818093BB009F5F9093190290918B
:100CF000190280911A02981710F485EC01C085E85A
:100D00008093BC000FC085EC8093BC0009C010929A
:100D10003C0285ED8093BC008091BC0084FDFCCF3B
:100D20001092CF01FF91EF91BF91AF919F918F9161
:100D30007F916F915F914F913F912F910F900FBED7
:100D40000F901F9018959093480280934702089542
:100D500090934602809345020895FC0180914902D8
:100D600090914A029183808380E40895CF93DF932A
:100D7000EC018091450290914602892B71F480E448
:100D800090E00E947B108093490290934A028DEA82
:100D900096E09093460280934502AE01662757FD88
:100DA0006095762F85E598E00E94A61985E598E084
:100DB0000E945918DF91CF91089510923F0210922E
:100DC000400285E598E00C945918FF920F931F9309
:100DD000DF93CF930F92CDB7DEB7F82E80ECF816E5
:100DE00039F08E010F5F1F4F8BEDF816D1F40EC056
:100DF0008BED898385E598E08E010F5F1F4FB80169
:100E000041E050E00E9471188CED09C0F98285E53F
:100E100098E0B80141E050E00E9471188DED89839F
:100E200001C0F98285E598E0B80141E050E00E94F8
:100E3000711880913E028F2580933E020F90CF91D2
:100E4000DF911F910F91FF900895DF92EF92FF9233
:100E50000F931F93DF93CF930F92CDB7DEB7182F69
:100E6000092FD62E10923E0280914002AEDF212F34
:100E7000302FC9017C0110E005C0F70181917F018D
:100E8000A4DF1F5F1D15C8F380913E029EDF80EC3A
:100E9000898385E598E0BE016F5F7F4F41E050E0B8
:100EA0000E947118809140028F5F809340028150B0
:100EB0000F90CF91DF911F910F91FF90EF90DF90F6
:100EC0000895DF93CF9300D0CDB7DEB79FE7998326
:100ED0008A83CE01019662E0B8DF0F900F90CF9128
:100EE000DF910895CF93DF93EC0185E598E00E94B0
:100EF0002A18282F88838091410290914202892BE1
:100F0000D9F02C3D19F02D3D31F402C080EC01C028
:100F10008BED888308C081E0D4DF83E090E090937C
:100F20004402809343021092420210924102809147
:100F30003D02988189272CC02B3D49F481E090E047
:100F4000909342028093410220E030E025C0203C93
:100F5000E1F480914302909144028130910549F07F
:100F6000039751F410923D021092440210924302F2
:100F700011C082E090E004C083E0A3DF83E090E052
:100F8000909344028093430205C080913D028227E2
:100F900080933D0221E030E0C901DF91CF910895B7
:100FA000CF92DF92EF92FF920F931F93DF93CF9335
:100FB0000F92CDB7DEB76E010894C11CD11C83E03F
:100FC000E82EF12C01E010E07BC0C6018BDF892BFD
:100FD00009F476C0809143029091440281309105DA
:100FE00021F182309105E1F1892B09F069C09981E5
:100FF00090934F0280913F028F5F80933F02891749
:1010000021F090933F0280E05CDFE0914502F09197
:1010100046028BE492E0099580934D0210924E02B5
:1010200010934402009343024BC090914E02809172
:101030004D02981749F484E044DFF0924402E092B4
:10104000430210923D023CC0E0914B02F0914C02F1
:10105000E90FF11D898180839F5F90934E0230C01C
:101060000FB6F8948091440890914508A0914608E5
:10107000B09147080FBE8093500290935102A09305
:101080005202B093530280913D02882389F4E0918B
:101090004702F0914802309779F060914E0261501A
:1010A00040914B0250914C0280913F02099504C03F
:1010B00082E007DF10923D02109244021092430238
:1010C00085E598E00E94F117892B09F07ECF0F90FB
:1010D000CF91DF911F910F91FF90EF90DF90CF9014
:1010E0000895E82FF0E0EE0FFF1FE856F94F7183E7
:1010F00060830895FC0120919A0730919B07C901F4
:101100008C5A9D4F9183808380E094E0821B930BE7
:101110008F3F910519F014F08FEF90E00895E09162
:101120007406F091750680819181809590959183E8
:1011300080830895E0917406F09175068081918115
:10114000909581959F4F918380830895E0917406D7
:10115000F091750680819181019691838083089535
:10116000E0917406F09175068081918101979183D9
:1011700080830895809174069091750602979093EC
:101180007506809374060895A0917406B091750653
:101190002D913C911197FD01929182918D939C9399
:1011A00031832083089582E596E0909375068093BD
:1011B000740608958FEF9FEF9093030180930201CF
:1011C0000895CF93DF93CEEAD7E0CE014AD8239695
:1011D00088E0CE33D807C9F7DF91CF91089587EC27
:1011E00091E033CB87EC91E040CB82E596E09093A1
:1011F00075068093740610929D0710929C071092BA
:101200009B0710929A0780E094E090939F07809349
:101210009E078FEF9FEF909303018093020110923E
:10122000A1071092A007C9CD80919A0790919B07C2
:1012300060910001681B8C5A9D4F07CE90E084D2CC
:101240008CEF90E081D26BD355D3EECFE091960630
:10125000F091970686E0E637F80710F480E0EECFCD
:10126000808191813297F0939706E09396060895D6
:101270000F931F9300919E0710919F07E7DF080FC0
:10128000191F10939F0700939E071F910F910895B8
:10129000DDDF90939907809398070895E091960673
:1012A000F091970626E0E639F20710F081E0C6CF0C
:1012B0003296F0939706E093960632979383828353
:1012C0000895D6DF80E090E0E9CFE0917406F091D8
:1012D000750686E0E435F80740F482E596E09093E1
:1012E00075068093740682E0A9CF80819181329740
:1012F000F0937506E093740608950F931F93E5DF4E
:101300008C01E3DFBC01C801880F991F800F911F7A
:101310008255984F0E947B011F910F910895D5DF50
:101320009C01220F331F280F391FC9018255984F86
:101330000C944B01CADFBC01880F991F860F971FC1
:101340008255984FB3C9C1DFFC01EE0FFF1FEE5568
:10135000F84F2FEF3FEF318320830C9463160F93E8
:101360001F93B3DF082FB1DF182FAFDFE12FF0E0BD
:10137000EE0FFF1FEE55F84F91838083133001F17C
:10138000143028F4113081F01230A0F407C0153069
:1013900019F11530D8F0163059F524C080E06DEF02
:1013A0007DE0402F0E94261681E06AEF7DE0402F0D
:1013B0000E94261682E067EF7DE0402F0E942616ED
:1013C00083E064EF7DE0402F0E94261684E061EF09
:1013D0007DE0402F0E94261685E06EEE7DE0402FD6
:1013E0000E94261686E06BEE7DE0402F0E942616B6
:1013F0001F910F91089569DF909307018093060173
:1014000087EC91E060E07EE095C95FDF9093050195
:101410008093040187EC91E06AE07EE086C955DFA5
:10142000682F87EC91E0D2C950DF682F87EC91E0FC
:1014300042C90F931F9349DF8C0147DFAC0187EC52
:1014400091E0B80110DA1F910F9108951F933DDFCD
:10145000182F3BDFBC01812F0E9473131F91089549
:101460001F9333DF182F31DFE12FF0E020E0892BCD
:1014700009F021E0022E7BD71F9108951F9325DFED
:10148000182F23DF682F812F6BD71F91089510929B
:10149000A1071092A00719DF909303018093020126
:1014A0000895CF93DF9311DFEC010FDF892B49F013
:1014B0008091980790919907F1DED0939907C09396
:1014C0009807DF91CF910895EF92FF920F931F93AA
:1014D000FCDE7C01FADE182F092F8091980790918D
:1014E0009907DCDEF2DE892B11F0E12EF02EE0927E
:1014F0009807F09299071F910F91FF90EF90089530
:101500008091980790919907C9DEDFDE9093990743
:10151000809398070895D9DE9C0180919A07909155
:101520009B072817390724F430939B0720939A07C9
:101530000895CBDEB3CEC9DEA0917406B0917506D6
:10154000880F991FFD01E81BF90B2081318104C030
:101550008281938181939193EA17FB07C8F32D93BE
:101560003C930895B2DEE0917406F09175062081F7
:101570003181821793071CF480E090E002C08FEF66
:101580009FEF918380830895A0DEE0917406F0912F
:10159000750620813181281739071CF080E090E022
:1015A00002C08FEF9FEF9183808308958EDEE091DC
:1015B0007406F091750620813181281739071CF4D3
:1015C00080E090E002C08FEF9FEF918380830895C9
:1015D0007CDEE0917406F0917506208131818217DE
:1015E00093071CF080E090E002C08FEF9FEF9183A3
:1015F000808308956ADEE0917406F091750620817B
:1016000031812817390719F480E090E002C08FEF8C
:101610009FEF91838083089558DEE0917406F091E6
:101620007506208131812817390719F080E090E094
:1016300002C08FEF9FEF91838083089546DEAC0157
:10164000E0917406F091750697FF0CC022273327AE
:10165000281B390B8081918102C0880F991F2A9520
:10166000E2F707C08081918102C0959587954A95E0
:10167000E2F791838083089528DEE0917406F0916B
:1016800075062081318128273927318320830895E9
:101690001CDEE0917406F091750620813181282BC3
:1016A000392B31832083089510DEE0917406F09188
:1016B00075062081318128233923318320830895C1
:1016C00004DEBC01E0917406F09175068081918181
:1016D0000E94231A918380830895F7DDBC01E09175
:1016E0007406F0917506808191810E94231A71839E
:1016F00060830895EADDE0917406F091750620811B
:101700003181AC01249FC001259F900D349F900D25
:101710001124918380830895D8DDE0917406F091BF
:10172000750620813181281B390B31832083089570
:10173000CCDDE0917406F091750620813181280F8F
:10174000391F318320830895E0917406F091750666
:1017500026E0E437F20740F082E596E090937506C4
:101760008093740683E06ACD3296F0937506E09319
:10177000740632979383828308951F93A6DD182FF2
:10178000A4DD682F812F20E432E44FE050E00E9476
:101790004117DC01CB01D8DF1F9108950FB6F894F3
:1017A0008091440890914508A0914608B09147085F
:1017B0000FBECACF87EC91E00E9465031816190688
:1017C000CCF787EC91E00E946E03BECF87EC91E0EE
:1017D0000E946503B9CF79DD15D5B6CF76DDE82F48
:1017E000F0E061D6EE2319F08FEF9FEF02C080E0AA
:1017F00090E0AACF8091A0079091A1079F77A4CFF6
:101800000F931F9300919E0710919F075EDD800F3D
:10181000911F9ADF1F910F910895E0919606F09124
:1018200097068081918190CF11DD8ECF4EDD880F9C
:10183000991FE0917406F0917506E81BF90B808101
:10184000918182CFE0917406F0917506808191813B
:101850007BCFFC0184E0E030F80714F084E0EECCAC
:10186000EC5AFD4F60830895EF92FF920F931F9300
:101870002CDD7C012ADD8C01692F772767FD7A95A5
:10188000C701E7DFC7010196602FE3DF1F910F91CA
:10189000FF90EF900895B4DFE7CF0F931F9315DD0E
:1018A0008C0113DD682FC801D4DF1F910F910895BB
:1018B0000F931F930ADD8C0180910001909101012B
:1018C000019690930101809300010197612F772782
:1018D00067FD7A95BEDF809100019091010101962C
:1018E00090930101809300010197602FB2DF1F9157
:1018F0000F9108950F931F93009100011091010122
:101900000F5F1F4F10930101009300010150104021
:10191000DCDC682FC8019DDF1F910F9108950F93A4
:101920001F9300919A0710919B070F5F1F4F109311
:1019300001010093000101501040C7DC682FC8016D
:1019400088DF1F910F9108950F931F93CF93DF931B
:10195000BCDC8C0180919E0790919F07801B910BAE
:1019600090939F0780939E07C80198DCC0919E07C3
:10197000D0919F0704C0CE0160E06BDF21962091DB
:101980009E0730919F07C801820F931FC817D90780
:1019900094F380919A0790919B072817390714F4C4
:1019A00084E04CDCDF91CF911F910F910895FC01F1
:1019B00084E0E030F80720F084E040DC80E0089527
:1019C000EC5AFD4F808108951F9380919807909164
:1019D0009907019690939907809398070197E7DFFD
:1019E000182F8091980790919907AEDE8091980703
:1019F00090919907810F911D909399078093980773
:101A00001F9108950F931F930091980710919907C4
:101A1000C801CDDF992787FD9095800F911F909386
:101A20009907809398071F910F9108954EDC892B99
:101A300009F4E8CF809198079091990701969093C7
:101A40009907809398070895FF920F931F938C0135
:101A5000AEDFF82EC8010196AADF5F2D40E0282FE7
:101A600030E0242B352BC9011F910F91FF90089571
:101A70008091980790919907019690939907809388
:101A800098070197E1DF60DE8091980790919907B0
:101A90000196909399078093980708950F931F9349
:101AA0000091740610917506F80180819181CCDF58
:101AB000F801918380831F910F910895A1DEEECFED
:101AC0008091980790919907019690939907809338
:101AD000980701976CDF992787FD909535CE0F9376
:101AE0001F930091740610917506F8018081918111
:101AF0005EDFF801808311821F910F910895CF93CB
:101B0000DF93809198079091990701969093990798
:101B10008093980701974BDFC82FD0E087FD08C05E
:101B2000CC0FDD1FC856D94FE881F98109951EC039
:101B30008091980790919907019639DF882331F0B9
:101B400080919807909199070196A8DB809198075A
:101B5000909199072CDF90E03C2F222720703F774F
:101B6000822B932B909399078093980780919807E5
:101B70009091990797FFC5CFDF91CF91089524E702
:101B800036E03093970620939606909399078093BA
:101B900098078FEF9FEF82DBB2CF80910201909187
:101BA000030197FD0AC0EBDF8091A0079091A10788
:101BB00001969093A1078093A0070895FC01EE0F72
:101BC000FF1FEE55F84F808191812FEF8F3F9207D5
:101BD00009F0D5CF089586E090E0F0CF85E090E061
:101BE000EDCF84E090E0EACF83E090E0E7CF82E0C1
:101BF00090E0E4CF81E090E0E1CF80E090E0DECFC4
:101C000080910601909107012FEF8F3F920709F015
:101C1000B6CF08959C0180910401909105018F5FDA
:101C20009F4F39F0C90190DD809104019091050129
:101C3000A6CF08951F9380919A0790919B07909348
:101C40009D0780939C079C0121503040260F311D39
:101C500030939B0720939A0710E0F901EC5AFD4F4F
:101C60008081882361F411E02F5F3F4F30939B0701
:101C700020939A0721503040C90160E0EADD2091AD
:101C80009A0730919B0780919E0790919F0782173A
:101C900093071CF484E0D2DA0BC0112349F0809141
:101CA0009C0790919D0790939B0780939A0767DF0D
:101CB0001F9108951F93CF93DF93182FEB01CB0152
:101CC00043DD812F90E040DD209719F428DEFDDA16
:101CD0000BC0C058DF4FCF3FD10509F018F41FDE0D
:101CE00009DE02C01CDEE4DD9FDADF91CF911F9197
:101CF00008958AE798E02CD88AE19EE024D875DA26
:101D000088E499E0909399068093980680E69DE098
:101D100090939B0680939A0688E39DE090939D069E
:101D200080939C0682E09DE090939F0680939E06A0
:101D300086E19DE09093A1068093A00684EE9CE04E
:101D40009093A3068093A2068FE89CE09093A5064B
:101D50008093A4068AE79CE09093A7068093A6064A
:101D600088E59CE09093A9068093A80684E199E019
:101D70009093AB068093AA0682E790E19093AD061C
:101D80008093AC068FE69DE09093AF068093AE06FD
:101D90008DE49CE09093B1068093B0068EE49DE0C4
:101DA0009093B3068093B20684E39CE09093B506CB
:101DB0008093B40688E99BE09093B7068093B606BB
:101DC0008CE89BE09093B9068093B8068AE79BE085
:101DD0009093BB068093BA068DE69BE09093BD0678
:101DE0008093BC0680E69BE09093BF068093BE067E
:101DF00084E59BE09093C1068093C00688E49BE055
:101E00009093C3068093C2068CE39BE09093C50633
:101E10008093C4068EE19BE09093C7068093C6062C
:101E20008CE09BE09093C9068093C8068AEF9AE005
:101E30009093CB068093CA0688EE9AE09093CD06E5
:101E40008093CC0686ED9AE09093CF068093CE06E1
:101E500084EC9AE09093D1068093D00682EB9AE0CE
:101E60009093D3068093D2068FE898E09093D5069E
:101E70008093D4068AE998E09093D7068093D6069B
:101E800086EA98E09093D9068093D80680EB98E094
:101E90009093DB068093DA068AEB98E09093DD0658
:101EA0008093DC0682E29CE09093DF068093DE065E
:101EB00084EC98E09093E1068093E00686E19CE054
:101EC0009093E3068093E2068BE99AE09093E5060F
:101ED0008093E40683ED98E09093E7068093E6060E
:101EE00089E99AE09093E9068093E80684E19CE012
:101EF0009093EB068093EA068DE09CE09093ED06CC
:101F00008093EC068BE89AE09093EF068093EE06C0
:101F100084EA9CE09093F1068093F00688E399E0D0
:101F20009093F3068093F20681E699E09093F5068C
:101F30008093F40680E09CE09093F7068093F60689
:101F40008EE59DE09093F9068093F8068BE49CE083
:101F50009093FB068093FA0680E89AE09093FD0642
:101F60008093FC0684E69AE09093FF068093FE0639
:101F700081E59AE090930107809300078AEF9BE048
:101F8000909303078093020787E49AE090930507F4
:101F9000809304078AED98E09093070780930607E3
:101FA00085EF98E090930907809308078EE39AE005
:101FB00090930B0780930A078EEE9BE090930D079A
:101FC00080930C0780E39AE090930F0780930E07AD
:101FD0008BEE9BE0909311078093100786E29AE0C6
:101FE000909313078093120782EF98E09093150760
:101FF0008093140789E19AE090931707809316075E
:1020000086EE9BE090931907809318078AED9BE07A
:1020100090931B0780931A0784E19AE090931D0721
:1020200080931C078FE09AE090931F0780931E0710
:102030008FEE98E0909321078093200785E09AE047
:1020400090932307809322078BEF99E090932507C5
:10205000809324078FEA99E09093270780932607BF
:1020600083EA99E090932907809328078AE999E009
:1020700090932B0780932A078FE899E090932D0780
:1020800080932C078DE799E090932F0780932E077C
:102090008EEC9BE090933107809330078DEB9BE0B3
:1020A00090933307809332078FEF9FEF9093A307AE
:1020B0008093A2079093A5078093A4079093A70706
:1020C0008093A6079093A9078093A8079093AB07E6
:1020D0008093AA079093AD078093AC078FEF60E0E1
:1020E00070E0E8CD1F93F1D8182FEFD8BC01812FF5
:1020F000E1DD1F9108950F931F93CF93DF93BC01F0
:102100008230910510F462E070E0E0915F08F09198
:102110006008A0E0B0E040E050E024C08081918100
:1021200086179707D0F08617970771F482819381FD
:10213000109729F013969C938E9312972CC090932E
:10214000600880935F0827C04115510519F0841776
:10215000950718F4EF018D01AC01DF0182819381B5
:102160009C01F9013097D1F641155105F9F0CA01EA
:10217000861B970B8430910580F48A819B81011521
:10218000110521F0F8019383828304C090936008C5
:1021900080935F08FE0132962FC0FE01E80FF91F01
:1021A0006193719302979983888326C08DB79EB7F8
:1021B000885790402091080130910901281739076C
:1021C000C8F4AC01421B530B4617570798F0CB01DC
:1021D00002964817590770F0820F931F90930901D8
:1021E0008093080190933F0880933E08F901619322
:1021F000719302C0E0E0F0E0CF01DF91CF911F9139
:102200000F910895873118F020E030E045C0E82FA5
:10221000F0E0EA50FF4FE49140910A01E830A0F469
:1022200080917E0021E030E00E2E02C0220F331F8D
:102230000A94E2F7822B80937E0080E880937B00F3
:10224000E42BE0937C0015C03E2F385020917D0098
:1022500081E090E0032E02C0880F991F0A94E2F7F4
:10226000282B20937D0080EA80937B00342B3093D1
:102270007C0080917A00806480937A0080917A005B
:1022800086FDFCCF3091780020917900922F80E07C
:10229000232F30E0282B392BC9010895893170F4A0
:1022A000ECEAF0E0880FE80FF11D9591E491F0E081
:1022B0002FB7F8948181892B81832FBF08958931AD
:1022C00028F5982F9B509C3020F0A0E0B0E03FEF25
:1022D00008C0EEEDF0E0990FE90FF11DA591B0E017
:1022E0003591ECEAF0E0880FE80FF11D9591E4914B
:1022F000F0E02FB7F89481819095892381838281C2
:10230000892382838C9183238C932FBF08958931F5
:1023100030F5982F9B509C3020F0A0E0B0E04FEFBC
:1023200008C0EEEDF0E0990FE90FF11DA591B0E0C6
:102330004591ECEAF0E0880FE80FF11D2591E4915A
:10234000F0E03FB7F8948181922F909589238183A3
:102350008281822B82838C9184238C933FBF08954A
:10236000613009F49BCF623009F4D1CFA8CF0020AF
:1023700039F000C0E93150F4EE0FE953FE4E0994F4
:10238000E93120F4EE0FE750FE4E09940895289AA3
:102390000895299A08952A9A08952B9A08952F9AB4
:1023A0006AC0589A58C0599A08955A9A08955B9AE3
:1023B0000895469A66C0479A6AC05E9A08955F9AE1
:1023C0006CC02C9A08952D9A4AC02E9A4EC08F9AAE
:1023D00008958E9A08958D9A08958C9A0895899AF1
:1023E0000895889A08955C9A08955D9A0895769A5A
:1023F000089528980895299808952A9808952B9863
:1024000008952F9838C0589826C0599808955A981A
:1024100008955B980895469834C0479838C05E98F0
:1024200008955F983AC02C9808952D9818C02E985A
:102430001CC08F9808958E9808958D9808958C9853
:10244000089589980895889808955C9808955D98EE
:10245000089576980895E4B5EF7DE4BD0895E09180
:102460008000EF77E09380000895E0918000EF7D99
:10247000E09380000895E0918000E77FE093800082
:102480000895E0919000EF77E09390000895E09137
:10249000C000EF77E093C0000895E091C200E77FAD
:1024A000E093C2000895E93130F4EE0FEE0FFF27FC
:1024B000E15AFD4E0994EE270895E1E00895E3B155
:1024C000E170D9F70895E3B1E270B9F70895E3B187
:1024D000E47099F70895E3B1E87079F70895E3B1EE
:1024E000E07859F70895E9B1E17039F70895E9B155
:1024F000E27019F70895E9B1E470F9F60895E9B1C9
:10250000E870D9F60895E6B1E074B9F60895E6B139
:10251000E07899F60895E9B1E07479F60895E9B1A3
:10252000E07859F60895E3B1E07139F60895E3B122
:10253000E07219F60895E3B1E07429F50895EFB15A
:10254000E07809F50895EFB1E074E9F40895EFB18A
:10255000E072C9F40895EFB1E071A9F40895EFB104
:10256000E27089F40895EFB1E17069F40895E9B17A
:10257000E07149F40895E9B1E07229F40895ECB1ED
:10258000E07409F40895E1E008951DBA109268001E
:102590001CBC10BE1FBA10927A0010926E001092EE
:1025A0006F0010927100109272001092C900ECEB53
:1025B000F0E0108214B817B81AB81DB810BA10821B
:1025C00015B818B81BB81EB811BA0895F89480E26F
:1025D0009EE40197F1F781E08093E00080E2809330
:1025E000D80080E69AEE0197F1F7CFDF0C94003F18
:1025F000FFCFF894CADF80E69AEE0197F1F70C94CA
:102600000000FFCF8F938FB78F93809148088D5F25
:102610008D37D0F480934808809144088F5F809371
:102620004408D8F0809145088F4F80934508A8F062
:10263000809146088F4F8093460878F08091470834
:102640008F4F8093470809C08D5780934808809129
:1026500044088E5F8093440828F7809140088C5F7F
:102660008093400858F0809141088F4F8093410833
:1026700028F0809142088F4F809342088F918FBF3E
:102680008F9118959B01AC0114D0FB010CC011D0A7
:102690006E1B7F0B685E7340D0F32150304040408A
:1026A0005040E851FC4F211531054105510579F79E
:1026B00008950FB6F89466B515B2709140088091F0
:1026C0004108909142080FBE10FE05C06F3F19F0FF
:1026D0007C5F8F4F9F4F11240024660F001C660FF4
:1026E000001C702908951F93CF93DF93182FEB01DF
:1026F000D5DD1A3009F441C01B3040F4153071F0BB
:10270000193089F1143009F048C025C01E3089F015
:102710001F30B9F01C3009F040C037C0209721F4B9
:10272000589884B58F7D03C0C8BD84B5806284BDD0
:102730003CC0D0938900C09388008091800080685D
:1027400007C0D0938B00C0938A0080918000806284
:10275000809380002AC0D0938D00C0938C0080911C
:1027600080008860F5CFD0939900C0939800809145
:10277000900080688093900018C0C093CF00809133
:10278000C00080688093C00010C0C093D2008091C8
:10279000C20088608093C20008C0E12FF0E0C0381A
:1027A000D10514F4EDDD01C0E5DDDF91CF911F917E
:1027B0000895F894E1E6F0E020E82083108283E0B9
:1027C00084BD85BDEEE6F0E080818160808391E08C
:1027D0009093800082E0809381009093900080939A
:1027E00091008093C00084E08093C1009093C20068
:1027F0009093C3001092C40086E880937A002093DF
:102800007B0010927E0010927D0002D07894089593
:102810008091D80087FF02C085FF1BC081E08093B4
:10282000D70080EA8093D80082E189BD09B400FE18
:10283000FDCF80E98093D8001092E00010926108EB
:102840001092620810924C081092E1008DE0809383
:10285000E20008951F920F920FB60F9211242F934A
:102860003F934F935F936F937F938F939F93AF9318
:10287000BF93EF93FF931092E9008091E80083FFEC
:1028800057C12091F1009091F1004091F1005091D9
:10289000F1006091F1007091F100A091F100B09110
:1028A000F10082EF8093E800963009F044C0EDE03B
:1028B000F1E020E0859195918417950711F0359608
:1028C00017C0859195918617970711F0339610C020
:1028D000259135914491CD01AF3FB10519F010F02C
:1028E0008FEF90E0841708F4482FF9015EEF04C0E1
:1028F0002F5F2630F9F61CC18091E800282F30E0C8
:10290000C90185709070892BB9F322FD14C1242F61
:10291000413208F020E2922F04C085918093F100AB
:1029200091509923D1F7421B5093E800442321F79B
:10293000203211F300C1953061F48EEF8093E800EE
:102940008091E80080FFFCCF842F80688093E300B3
:10295000F2C0993009F5222309F0EAC040936108DA
:1029600010924C08109249088EEF8093E800E7E33C
:10297000F1E091E09093E90085918093EB0088234A
:1029800031F085918093EC0085918093ED009F5FFD
:10299000953081F78EE1C7C0983061F4203809F096
:1029A000C7C08091E80080FFFCCF809161088093D0
:1029B000F10096C09132A9F4213A09F0B9C0809192
:1029C000E80080FFFCCF20E030E0F901E55FFE4F3A
:1029D00080818093F1002F5F3F4F27303105A9F7A9
:1029E0007FC0903209F04BC0213209F0A1C0809124
:1029F000E80082FFFCCF20E030E0F901E55FFE4F08
:102A00008091F10080832F5F3F4F27303105A9F778
:102A10008BEF8093E8008EEF8093E80080910B01AC
:102A200090910C01A0910D01B0910E018638910595
:102A3000A105B10519F48FE080934A0880910B013C
:102A400090910C01A0910D01B0910E018639910574
:102A5000A105B10509F06FC084E08093E9002FEF74
:102A600006C02093E8008091E80082FDFCCF8091B1
:102A7000EE0090E083709070892B99F7BADD923266
:102A800051F4213209F054C040934C088091E80081
:102A900080FFFCCF25C0933241F4213209F048C0B9
:102AA0008091E80080FFFCCF1BC09923E9F480915E
:102AB000E80080FFFCCF223811F080E00DC0609369
:102AC000E9008091EB0090E025E0969587952A95A6
:102AD000E1F781701092E9008093F1001092F1000B
:102AE0008EEF8093E80027C0913011F0933001F50C
:102AF0002230F1F4452BE1F4262F2F77822F8150DD
:102B00008630B0F48EEF8093E8002093E900933094
:102B100079F089E18093EB0081E090E002C0880FBA
:102B2000991F2A95E2F78093EA001092EA0003C009
:102B300081E28093EB00FF91EF91BF91AF919F9164
:102B40008F917F916F915F914F913F912F910F9056
:102B50000FBE0F901F9018951F920F920FB60F92F5
:102B600011242F933F934F935F936F937F938F9392
:102B70009F93AF93BF93EF93FF938091E1001092E7
:102B8000E100982F83FF11C01092E90081E080934B
:102B9000EB001092EC0082E28093ED0088E08093DD
:102BA000F0001092610810924C0892FF1DC08091B5
:102BB00061088823C9F080914908882359F0815021
:102BC00080934908882331F484E08093E9008AE304
:102BD0008093E80080914A08882331F081508093E7
:102BE0004A08882309F4F2DC90FF0CC080E180934E
:102BF000E2001092610881E08093620880EA80938D
:102C0000D80019BC80916208882379F094FF0DC028
:102C100082E189BD09B400FEFDCF80E98093D80030
:102C20008DE08093E20010926208FF91EF91BF91D6
:102C3000AF919F918F917F916F915F914F913F9154
:102C40002F910F900FBE0F901F901895942F8430E6
:102C500098F0863061F0873018F4853099F505C01A
:102C6000873039F0883071F506C080E005C081E01A
:102C700003C082E001C083E0482F50E09A01220F98
:102C8000331FF901E35BF74F71836083FA01E6526A
:102C9000FE4FE491609169009370892F90E002C02B
:102CA000880F991F2A95E2F7E623E82BE093690045
:102CB0002DB381E090E002C0880F991F4A95E2F79A
:102CC000282B2DBB0895843098F0863061F0873032
:102CD00018F4853009F505C0873039F08830E1F403
:102CE00006C080E005C081E003C082E001C083E04F
:102CF0002DB3E82FF0E081E090E00E2E02C0880FA7
:102D0000991F0A94E2F7809582238DBBEE0FFF1F77
:102D1000E35BF74F1182108208951F920F920FB656
:102D20000F9211242F933F934F935F936F937F9351
:102D30008F939F93AF93BF93EF93FF9380914D0831
:102D400090914E08892B29F0E0914D08F0914E08A2
:102D50000995FF91EF91BF91AF919F918F917F91D5
:102D60006F915F914F913F912F910F900FBE0F90F8
:102D70001F9018951F920F920FB60F9211242F9348
:102D80003F934F935F936F937F938F939F93AF93F3
:102D9000BF93EF93FF9380914F0890915008892B38
:102DA00029F0E0914F08F09150080995FF91EF91BB
:102DB000BF91AF919F918F917F916F915F914F9153
:102DC0003F912F910F900FBE0F901F9018951F925B
:102DD0000F920FB60F9211242F933F934F935F934F
:102DE0006F937F938F939F93AF93BF93EF93FF93D3
:102DF0008091510890915208892B29F0E091510857
:102E0000F09152080995FF91EF91BF91AF919F9179
:102E10008F917F916F915F914F913F912F910F9083
:102E20000FBE0F901F9018951F920F920FB60F9222
:102E300011242F933F934F935F936F937F938F93BF
:102E40009F93AF93BF93EF93FF938091530890911B
:102E50005408892B29F0E0915308F0915408099502
:102E6000FF91EF91BF91AF919F918F917F916F9162
:102E70005F914F913F912F910F900FBE0F901F9038
:102E800018958F929F92AF92BF92CF92DF92EF925E
:102E9000FF920F931F93CF93DF93A82FB0E0AA0F59
:102EA000BB1FCD0184559F4FFC018490A355BF4F9C
:102EB000FD018491C82FD0E0662311F4992401C04C
:102EC000982C94E0220F331F441F551F9A95D1F779
:102ED000CA01B90125E130E040E050E0C7D27901F4
:102EE0008A01AA24BB2465010BC0AE14BF04C0062E
:102EF000D10609F445C00894A11CB11CC11CD11C09
:102F000088818821891589F30AC0AE14BF04C006E0
:102F1000D106B1F10894A11CB11CC11CD11C88813F
:102F20008821891591F720E030E040E050E00FC0A3
:102F3000DA01C9018A0D9B1DAC1DBD1D8E159F05B3
:102F4000A007B107E9F02F5F3F4F4F4F5F4F8881D8
:102F50008821891569F3CA01B90125E130E040E013
:102F600050E046D29B01AC012D5E3F4F4F4F5F4F6B
:102F700084E056954795379527958A95D1F704C0F3
:102F800020E030E040E050E0B901CA01DF91CF918C
:102F90001F910F91FF90EF90DF90CF90BF90AF9077
:102FA0009F908F90089505DC0E941E010E941B01D6
:102FB000FDCFDF93CF930F92CDB7DEB7FC016983CE
:102FC000A081B18112962D913C911397BE016F5F44
:102FD0007F4F41E050E0F90109950F90CF91DF91CB
:102FE0000895FC019FB7F89480916108882311F43B
:102FF00020E010C083E08093E9002091F2002223BA
:1030000049F48091E80082FF05C085FD03C08BE68E
:103010008093E8009FBF8085918597FD03C02F3F77
:1030200009F02F5F822F90E00895CF93DF93EC019A
:103030008885998597FF09C0E881F9810680F78125
:10304000E02DCE0109959987888788859985DF913C
:10305000CF910895FC012085318537FD05C08FEFA4
:103060009FEF9187808722C02FB7F89480916108E5
:10307000882369F083E08093E9009BE68091E80073
:1030800085FD09C082FF03C09093E800F7CF2FBFF2
:103090002FEF3FEF0CC09091F1008091E80085FD8B
:1030A00003C08BE68093E8002FBF292F30E0C901D1
:1030B0000895FC0180916108882371F09FB7F8940E
:1030C00083E08093E9002BE602C02093E800809122
:1030D000E80085FDFACF9FBF8FEF9FEF9187808734
:1030E00008956F927F928F929F92AF92BF92CF92EC
:1030F000DF92EF92FF920F931F93CF93DF933C01E8
:103100008B0180916108882329F481E0D301129614
:103110008C9311C03FB7F89484E08093E9008091CC
:103120004B08882369F08091E80085FD07C03FBF08
:1031300081E0E3018A8388249924DAC010924B0845
:103140008824992474E0A72E60E4B62E21EFE22EA5
:10315000F12C9AE3C92E83E0D82EC5C09091E400EB
:10316000915F8091E80085FD19C03FBF8091E40028
:10317000891731F481E080934B08F3018283B8C052
:1031800080916108882329F481E0D30112968C9301
:10319000AFC03FB7F894A092E900E3CF8091F2006E
:1031A0002B2D281B822F90E04817590708F4242F55
:1031B000622F70E0E801D701E0E4E21BE03428F47C
:1031C000EE0FFF27EA51F74E099480C089918C9346
:1031D00089918C9389918C9389918C9389918C930B
:1031E00089918C9389918C9389918C9389918C93FB
:1031F00089918C9389918C9389918C9389918C93EB
:1032000089918C9389918C9389918C9389918C93DA
:1032100089918C9389918C9389918C9389918C93CA
:1032200089918C9389918C9389918C9389918C93BA
:1032300089918C9389918C9389918C9389918C93AA
:1032400089918C9389918C9389918C9389918C939A
:1032500089918C9389918C9389918C9389918C938A
:1032600089918C9389918C9389918C9389918C937A
:1032700089918C9389918C9389918C9389918C936A
:1032800089918C9389918C9389918C9389918C935A
:1032900089918C9389918C9389918C9389918C934A
:1032A00089918C9389918C9389918C9389918C933A
:1032B00089918C9389918C9389918C9389918C932A
:1032C00089918C9389918C9389918C938E018091B3
:1032D000E80085FD02C0C092E800461B570B860E31
:1032E000971ED09249084115510509F037CF3FBFCD
:1032F000C401DF91CF911F910F91FF90EF90DF906C
:10330000CF90BF90AF909F908F907F906F900895D7
:10331000E5E5F8E08AE0DF011D928A95E9F7109271
:10332000570888EE93E0A0E0B0E0809358089093AF
:103330005908A0935A08B0935B0810925C0886E283
:1033400091E0909356088093550808952FEF3FEF32
:10335000FC01318720875CDA0FB6F894809144082D
:1033600090914508A0914608B09147080FBEAC0166
:1033700080916108882329F068EC70E080E090E09B
:1033800081C980916208882309F10FB6F894809171
:10339000440890914508A0914608B09147080FBE97
:1033A0009C0110C00FB6F894809144089091450894
:1033B000A0914608B09147080FBE821B930B8B3F2C
:1033C0009105A8F480916208882361F70FB6F894FC
:1033D0008091440890914508A0914608B091470813
:1033E0000FBE841B950B855C994008F4C1CF0895EE
:1033F000629FD001739FF001829FE00DF11D649FD9
:10340000E00DF11D929FF00D839FF00D749FF00D64
:10341000659FF00D9927729FB00DE11DF91F639F05
:10342000B00DE11DF91FBD01CF0111240895991BB5
:1034300079E004C0991F961708F0961B881F7A95AB
:10344000C9F78095089597FB092E07260AD077FDC6
:1034500004D02ED006D000201AF4709561957F4FCD
:103460000895F6F7909581959F4F0895A1E21A2E41
:10347000AA1BBB1BFD010DC0AA1FBB1FEE1FFF1F18
:10348000A217B307E407F50720F0A21BB30BE40B68
:10349000F50B661F771F881F991F1A9469F76095AF
:1034A0007095809590959B01AC01BD01CF01089569
:1034B000AA1BBB1B51E107C0AA1FBB1FA617B7075A
:1034C00010F0A61BB70B881F991F5A95A9F7809576
:1034D0009095BC01CD010895EE0FFF1F0590F4916A
:0834E000E02D0994F894FFCFE0
:1034E8000004FFFFFFFFFFFF63084000E10000004A
:1034F800000800000000E603B60365036E038303BB
:10350800940300000000D9177118F1172A1815182C
:02351800591840
:00000001FF
